{
  "contractName": "MetaKeyBlades",
  "abi": [
    {
      "inputs": [
        {
          "internalType": "string",
          "name": "_name",
          "type": "string"
        },
        {
          "internalType": "string",
          "name": "_symbol",
          "type": "string"
        },
        {
          "internalType": "string",
          "name": "_initBaseURI",
          "type": "string"
        }
      ],
      "stateMutability": "nonpayable",
      "type": "constructor"
    },
    {
      "anonymous": false,
      "inputs": [
        {
          "indexed": true,
          "internalType": "address",
          "name": "owner",
          "type": "address"
        },
        {
          "indexed": true,
          "internalType": "address",
          "name": "approved",
          "type": "address"
        },
        {
          "indexed": true,
          "internalType": "uint256",
          "name": "tokenId",
          "type": "uint256"
        }
      ],
      "name": "Approval",
      "type": "event"
    },
    {
      "anonymous": false,
      "inputs": [
        {
          "indexed": true,
          "internalType": "address",
          "name": "owner",
          "type": "address"
        },
        {
          "indexed": true,
          "internalType": "address",
          "name": "operator",
          "type": "address"
        },
        {
          "indexed": false,
          "internalType": "bool",
          "name": "approved",
          "type": "bool"
        }
      ],
      "name": "ApprovalForAll",
      "type": "event"
    },
    {
      "anonymous": false,
      "inputs": [
        {
          "indexed": true,
          "internalType": "address",
          "name": "previousOwner",
          "type": "address"
        },
        {
          "indexed": true,
          "internalType": "address",
          "name": "newOwner",
          "type": "address"
        }
      ],
      "name": "OwnershipTransferred",
      "type": "event"
    },
    {
      "anonymous": false,
      "inputs": [
        {
          "indexed": true,
          "internalType": "address",
          "name": "from",
          "type": "address"
        },
        {
          "indexed": true,
          "internalType": "address",
          "name": "to",
          "type": "address"
        },
        {
          "indexed": true,
          "internalType": "uint256",
          "name": "tokenId",
          "type": "uint256"
        }
      ],
      "name": "Transfer",
      "type": "event"
    },
    {
      "inputs": [
        {
          "internalType": "address",
          "name": "to",
          "type": "address"
        },
        {
          "internalType": "uint256",
          "name": "tokenId",
          "type": "uint256"
        }
      ],
      "name": "approve",
      "outputs": [],
      "stateMutability": "nonpayable",
      "type": "function"
    },
    {
      "inputs": [
        {
          "internalType": "address",
          "name": "owner",
          "type": "address"
        }
      ],
      "name": "balanceOf",
      "outputs": [
        {
          "internalType": "uint256",
          "name": "",
          "type": "uint256"
        }
      ],
      "stateMutability": "view",
      "type": "function",
      "constant": true
    },
    {
      "inputs": [],
      "name": "baseExtension",
      "outputs": [
        {
          "internalType": "string",
          "name": "",
          "type": "string"
        }
      ],
      "stateMutability": "view",
      "type": "function",
      "constant": true
    },
    {
      "inputs": [],
      "name": "baseURI",
      "outputs": [
        {
          "internalType": "string",
          "name": "",
          "type": "string"
        }
      ],
      "stateMutability": "view",
      "type": "function",
      "constant": true
    },
    {
      "inputs": [],
      "name": "cost",
      "outputs": [
        {
          "internalType": "uint256",
          "name": "",
          "type": "uint256"
        }
      ],
      "stateMutability": "view",
      "type": "function",
      "constant": true
    },
    {
      "inputs": [
        {
          "internalType": "uint256",
          "name": "tokenId",
          "type": "uint256"
        }
      ],
      "name": "getApproved",
      "outputs": [
        {
          "internalType": "address",
          "name": "",
          "type": "address"
        }
      ],
      "stateMutability": "view",
      "type": "function",
      "constant": true
    },
    {
      "inputs": [
        {
          "internalType": "address",
          "name": "owner",
          "type": "address"
        },
        {
          "internalType": "address",
          "name": "operator",
          "type": "address"
        }
      ],
      "name": "isApprovedForAll",
      "outputs": [
        {
          "internalType": "bool",
          "name": "",
          "type": "bool"
        }
      ],
      "stateMutability": "view",
      "type": "function",
      "constant": true
    },
    {
      "inputs": [],
      "name": "maxMintAmount",
      "outputs": [
        {
          "internalType": "uint256",
          "name": "",
          "type": "uint256"
        }
      ],
      "stateMutability": "view",
      "type": "function",
      "constant": true
    },
    {
      "inputs": [],
      "name": "maxSupply",
      "outputs": [
        {
          "internalType": "uint256",
          "name": "",
          "type": "uint256"
        }
      ],
      "stateMutability": "view",
      "type": "function",
      "constant": true
    },
    {
      "inputs": [],
      "name": "name",
      "outputs": [
        {
          "internalType": "string",
          "name": "",
          "type": "string"
        }
      ],
      "stateMutability": "view",
      "type": "function",
      "constant": true
    },
    {
      "inputs": [],
      "name": "owner",
      "outputs": [
        {
          "internalType": "address",
          "name": "",
          "type": "address"
        }
      ],
      "stateMutability": "view",
      "type": "function",
      "constant": true
    },
    {
      "inputs": [
        {
          "internalType": "uint256",
          "name": "tokenId",
          "type": "uint256"
        }
      ],
      "name": "ownerOf",
      "outputs": [
        {
          "internalType": "address",
          "name": "",
          "type": "address"
        }
      ],
      "stateMutability": "view",
      "type": "function",
      "constant": true
    },
    {
      "inputs": [],
      "name": "paused",
      "outputs": [
        {
          "internalType": "bool",
          "name": "",
          "type": "bool"
        }
      ],
      "stateMutability": "view",
      "type": "function",
      "constant": true
    },
    {
      "inputs": [],
      "name": "renounceOwnership",
      "outputs": [],
      "stateMutability": "nonpayable",
      "type": "function"
    },
    {
      "inputs": [
        {
          "internalType": "address",
          "name": "from",
          "type": "address"
        },
        {
          "internalType": "address",
          "name": "to",
          "type": "address"
        },
        {
          "internalType": "uint256",
          "name": "tokenId",
          "type": "uint256"
        }
      ],
      "name": "safeTransferFrom",
      "outputs": [],
      "stateMutability": "nonpayable",
      "type": "function"
    },
    {
      "inputs": [
        {
          "internalType": "address",
          "name": "from",
          "type": "address"
        },
        {
          "internalType": "address",
          "name": "to",
          "type": "address"
        },
        {
          "internalType": "uint256",
          "name": "tokenId",
          "type": "uint256"
        },
        {
          "internalType": "bytes",
          "name": "_data",
          "type": "bytes"
        }
      ],
      "name": "safeTransferFrom",
      "outputs": [],
      "stateMutability": "nonpayable",
      "type": "function"
    },
    {
      "inputs": [
        {
          "internalType": "address",
          "name": "operator",
          "type": "address"
        },
        {
          "internalType": "bool",
          "name": "approved",
          "type": "bool"
        }
      ],
      "name": "setApprovalForAll",
      "outputs": [],
      "stateMutability": "nonpayable",
      "type": "function"
    },
    {
      "inputs": [
        {
          "internalType": "bytes4",
          "name": "interfaceId",
          "type": "bytes4"
        }
      ],
      "name": "supportsInterface",
      "outputs": [
        {
          "internalType": "bool",
          "name": "",
          "type": "bool"
        }
      ],
      "stateMutability": "view",
      "type": "function",
      "constant": true
    },
    {
      "inputs": [],
      "name": "symbol",
      "outputs": [
        {
          "internalType": "string",
          "name": "",
          "type": "string"
        }
      ],
      "stateMutability": "view",
      "type": "function",
      "constant": true
    },
    {
      "inputs": [
        {
          "internalType": "uint256",
          "name": "index",
          "type": "uint256"
        }
      ],
      "name": "tokenByIndex",
      "outputs": [
        {
          "internalType": "uint256",
          "name": "",
          "type": "uint256"
        }
      ],
      "stateMutability": "view",
      "type": "function",
      "constant": true
    },
    {
      "inputs": [
        {
          "internalType": "address",
          "name": "owner",
          "type": "address"
        },
        {
          "internalType": "uint256",
          "name": "index",
          "type": "uint256"
        }
      ],
      "name": "tokenOfOwnerByIndex",
      "outputs": [
        {
          "internalType": "uint256",
          "name": "",
          "type": "uint256"
        }
      ],
      "stateMutability": "view",
      "type": "function",
      "constant": true
    },
    {
      "inputs": [],
      "name": "totalSupply",
      "outputs": [
        {
          "internalType": "uint256",
          "name": "",
          "type": "uint256"
        }
      ],
      "stateMutability": "view",
      "type": "function",
      "constant": true
    },
    {
      "inputs": [
        {
          "internalType": "address",
          "name": "from",
          "type": "address"
        },
        {
          "internalType": "address",
          "name": "to",
          "type": "address"
        },
        {
          "internalType": "uint256",
          "name": "tokenId",
          "type": "uint256"
        }
      ],
      "name": "transferFrom",
      "outputs": [],
      "stateMutability": "nonpayable",
      "type": "function"
    },
    {
      "inputs": [
        {
          "internalType": "address",
          "name": "newOwner",
          "type": "address"
        }
      ],
      "name": "transferOwnership",
      "outputs": [],
      "stateMutability": "nonpayable",
      "type": "function"
    },
    {
      "inputs": [
        {
          "internalType": "address",
          "name": "_to",
          "type": "address"
        },
        {
          "internalType": "uint256",
          "name": "_mintAmount",
          "type": "uint256"
        }
      ],
      "name": "mint",
      "outputs": [],
      "stateMutability": "payable",
      "type": "function",
      "payable": true
    },
    {
      "inputs": [
        {
          "internalType": "address",
          "name": "_owner",
          "type": "address"
        }
      ],
      "name": "walletOfOwner",
      "outputs": [
        {
          "internalType": "uint256[]",
          "name": "",
          "type": "uint256[]"
        }
      ],
      "stateMutability": "view",
      "type": "function",
      "constant": true
    },
    {
      "inputs": [
        {
          "internalType": "uint256",
          "name": "tokenId",
          "type": "uint256"
        }
      ],
      "name": "tokenURI",
      "outputs": [
        {
          "internalType": "string",
          "name": "",
          "type": "string"
        }
      ],
      "stateMutability": "view",
      "type": "function",
      "constant": true
    },
    {
      "inputs": [
        {
          "internalType": "uint256",
          "name": "_newCost",
          "type": "uint256"
        }
      ],
      "name": "setCost",
      "outputs": [],
      "stateMutability": "nonpayable",
      "type": "function"
    },
    {
      "inputs": [
        {
          "internalType": "uint256",
          "name": "_newmaxMintAmount",
          "type": "uint256"
        }
      ],
      "name": "setmaxMintAmount",
      "outputs": [],
      "stateMutability": "nonpayable",
      "type": "function"
    },
    {
      "inputs": [
        {
          "internalType": "string",
          "name": "_newBaseURI",
          "type": "string"
        }
      ],
      "name": "setBaseURI",
      "outputs": [],
      "stateMutability": "nonpayable",
      "type": "function"
    },
    {
      "inputs": [
        {
          "internalType": "string",
          "name": "_newBaseExtension",
          "type": "string"
        }
      ],
      "name": "setBaseExtension",
      "outputs": [],
      "stateMutability": "nonpayable",
      "type": "function"
    },
    {
      "inputs": [
        {
          "internalType": "bool",
          "name": "_state",
          "type": "bool"
        }
      ],
      "name": "pause",
      "outputs": [],
      "stateMutability": "nonpayable",
      "type": "function"
    },
    {
      "inputs": [],
      "name": "withdraw",
      "outputs": [],
      "stateMutability": "payable",
      "type": "function",
      "payable": true
    }
  ],
  "bytecode": "0x60c06040526005608081905264173539b7b760d91b60a09081526200002891600c9190620001a7565b5066d529ae9e860000600d556105dc600e55600a600f556010805460ff191690553480156200005657600080fd5b506040516200268b3803806200268b833981016040819052620000799162000300565b82518390839062000092906000906020850190620001a7565b508051620000a8906001906020840190620001a7565b505050620000c5620000bf620000d960201b60201c565b620000dd565b620000d0816200012f565b505050620003e0565b3390565b600a80546001600160a01b038381166001600160a01b0319831681179093556040519116919082907f8be0079c531659141344cd1fd0a4f28419497f9722a3daafe3b4186f6b6457e090600090a35050565b600a546001600160a01b031633146200018e5760405162461bcd60e51b815260206004820181905260248201527f4f776e61626c653a2063616c6c6572206973206e6f7420746865206f776e6572604482015260640160405180910390fd5b8051620001a390600b906020840190620001a7565b5050565b828054620001b5906200038d565b90600052602060002090601f016020900481019282620001d9576000855562000224565b82601f10620001f457805160ff191683800117855562000224565b8280016001018555821562000224579182015b828111156200022457825182559160200191906001019062000207565b506200023292915062000236565b5090565b5b8082111562000232576000815560010162000237565b600082601f8301126200025e578081fd5b81516001600160401b03808211156200027b576200027b620003ca565b604051601f8301601f19908116603f01168101908282118183101715620002a657620002a6620003ca565b81604052838152602092508683858801011115620002c2578485fd5b8491505b83821015620002e55785820183015181830184015290820190620002c6565b83821115620002f657848385830101525b9695505050505050565b60008060006060848603121562000315578283fd5b83516001600160401b03808211156200032c578485fd5b6200033a878388016200024d565b9450602086015191508082111562000350578384fd5b6200035e878388016200024d565b9350604086015191508082111562000374578283fd5b5062000383868287016200024d565b9150509250925092565b600181811c90821680620003a257607f821691505b60208210811415620003c457634e487b7160e01b600052602260045260246000fd5b50919050565b634e487b7160e01b600052604160045260246000fd5b61229b80620003f06000396000f3fe6080604052600436106101ee5760003560e01c806355f804b31161010d57806395d89b41116100a0578063c87b56dd1161006f578063c87b56dd14610547578063d5abeb0114610567578063da3ef23f1461057d578063e985e9c51461059d578063f2fde38b146105e657600080fd5b806395d89b41146104dd578063a22cb465146104f2578063b88d4fde14610512578063c66828621461053257600080fd5b806370a08231116100dc57806370a082311461046a578063715018a61461048a5780637f00c7a61461049f5780638da5cb5b146104bf57600080fd5b806355f804b3146103fb5780635c975abb1461041b5780636352211e146104355780636c0360eb1461045557600080fd5b806323b872dd1161018557806342842e0e1161015457806342842e0e1461036e578063438b63001461038e57806344a0d68a146103bb5780634f6ccce7146103db57600080fd5b806323b872dd146103135780632f745c59146103335780633ccfd60b1461035357806340c10f191461035b57600080fd5b8063095ea7b3116101c1578063095ea7b3146102a457806313faede6146102c457806318160ddd146102e8578063239c70ae146102fd57600080fd5b806301ffc9a7146101f357806302329a291461022857806306fdde031461024a578063081812fc1461026c575b600080fd5b3480156101ff57600080fd5b5061021361020e366004611e25565b610606565b60405190151581526020015b60405180910390f35b34801561023457600080fd5b50610248610243366004611e0b565b610631565b005b34801561025657600080fd5b5061025f610677565b60405161021f919061202a565b34801561027857600080fd5b5061028c610287366004611ea3565b610709565b6040516001600160a01b03909116815260200161021f565b3480156102b057600080fd5b506102486102bf366004611de2565b61079e565b3480156102d057600080fd5b506102da600d5481565b60405190815260200161021f565b3480156102f457600080fd5b506008546102da565b34801561030957600080fd5b506102da600f5481565b34801561031f57600080fd5b5061024861032e366004611d05565b6108b4565b34801561033f57600080fd5b506102da61034e366004611de2565b6108e5565b61024861097b565b610248610369366004611de2565b6109cb565b34801561037a57600080fd5b50610248610389366004611d05565b610ab4565b34801561039a57600080fd5b506103ae6103a9366004611cb9565b610acf565b60405161021f9190611fe6565b3480156103c757600080fd5b506102486103d6366004611ea3565b610b8d565b3480156103e757600080fd5b506102da6103f6366004611ea3565b610bbc565b34801561040757600080fd5b50610248610416366004611e5d565b610c5d565b34801561042757600080fd5b506010546102139060ff1681565b34801561044157600080fd5b5061028c610450366004611ea3565b610c9e565b34801561046157600080fd5b5061025f610d15565b34801561047657600080fd5b506102da610485366004611cb9565b610da3565b34801561049657600080fd5b50610248610e2a565b3480156104ab57600080fd5b506102486104ba366004611ea3565b610e5e565b3480156104cb57600080fd5b50600a546001600160a01b031661028c565b3480156104e957600080fd5b5061025f610e8d565b3480156104fe57600080fd5b5061024861050d366004611db9565b610e9c565b34801561051e57600080fd5b5061024861052d366004611d40565b610f61565b34801561053e57600080fd5b5061025f610f93565b34801561055357600080fd5b5061025f610562366004611ea3565b610fa0565b34801561057357600080fd5b506102da600e5481565b34801561058957600080fd5b50610248610598366004611e5d565b61107e565b3480156105a957600080fd5b506102136105b8366004611cd3565b6001600160a01b03918216600090815260056020908152604080832093909416825291909152205460ff1690565b3480156105f257600080fd5b50610248610601366004611cb9565b6110bb565b60006001600160e01b0319821663780e9d6360e01b148061062b575061062b82611156565b92915050565b600a546001600160a01b031633146106645760405162461bcd60e51b815260040161065b9061208f565b60405180910390fd5b6010805460ff1916911515919091179055565b606060008054610686906121a3565b80601f01602080910402602001604051908101604052809291908181526020018280546106b2906121a3565b80156106ff5780601f106106d4576101008083540402835291602001916106ff565b820191906000526020600020905b8154815290600101906020018083116106e257829003601f168201915b5050505050905090565b6000818152600260205260408120546001600160a01b03166107825760405162461bcd60e51b815260206004820152602c60248201527f4552433732313a20617070726f76656420717565727920666f72206e6f6e657860448201526b34b9ba32b73a103a37b5b2b760a11b606482015260840161065b565b506000908152600460205260409020546001600160a01b031690565b60006107a982610c9e565b9050806001600160a01b0316836001600160a01b031614156108175760405162461bcd60e51b815260206004820152602160248201527f4552433732313a20617070726f76616c20746f2063757272656e74206f776e656044820152603960f91b606482015260840161065b565b336001600160a01b0382161480610833575061083381336105b8565b6108a55760405162461bcd60e51b815260206004820152603860248201527f4552433732313a20617070726f76652063616c6c6572206973206e6f74206f7760448201527f6e6572206e6f7220617070726f76656420666f7220616c6c0000000000000000606482015260840161065b565b6108af83836111a6565b505050565b6108be3382611214565b6108da5760405162461bcd60e51b815260040161065b906120c4565b6108af83838361130b565b60006108f083610da3565b82106109525760405162461bcd60e51b815260206004820152602b60248201527f455243373231456e756d657261626c653a206f776e657220696e646578206f7560448201526a74206f6620626f756e647360a81b606482015260840161065b565b506001600160a01b03919091166000908152600660209081526040808320938352929052205490565b600a546001600160a01b031633146109a55760405162461bcd60e51b815260040161065b9061208f565b60405133904780156108fc02916000818181858888f193505050506109c957600080fd5b565b60006109d660085490565b60105490915060ff16156109e957600080fd5b600082116109f657600080fd5b600e54610a038383612115565b1115610a0e57600080fd5b600a546001600160a01b03163314610a7f57600f54821115610a2f57600080fd5b81600d54610a3d9190612141565b341015610a7f5760405162461bcd60e51b815260206004820152601060248201526f2737ba1032b737bab3b41032ba3432b960811b604482015260640161065b565b60015b828111610aae57610a9c84610a978385612115565b6114b6565b80610aa6816121de565b915050610a82565b50505050565b6108af83838360405180602001604052806000815250610f61565b60606000610adc83610da3565b905060008167ffffffffffffffff811115610b0757634e487b7160e01b600052604160045260246000fd5b604051908082528060200260200182016040528015610b30578160200160208202803683370190505b50905060005b82811015610b8557610b4885826108e5565b828281518110610b6857634e487b7160e01b600052603260045260246000fd5b602090810291909101015280610b7d816121de565b915050610b36565b509392505050565b600a546001600160a01b03163314610bb75760405162461bcd60e51b815260040161065b9061208f565b600d55565b6000610bc760085490565b8210610c2a5760405162461bcd60e51b815260206004820152602c60248201527f455243373231456e756d657261626c653a20676c6f62616c20696e646578206f60448201526b7574206f6620626f756e647360a01b606482015260840161065b565b60088281548110610c4b57634e487b7160e01b600052603260045260246000fd5b90600052602060002001549050919050565b600a546001600160a01b03163314610c875760405162461bcd60e51b815260040161065b9061208f565b8051610c9a90600b906020840190611b7e565b5050565b6000818152600260205260408120546001600160a01b03168061062b5760405162461bcd60e51b815260206004820152602960248201527f4552433732313a206f776e657220717565727920666f72206e6f6e657869737460448201526832b73a103a37b5b2b760b91b606482015260840161065b565b600b8054610d22906121a3565b80601f0160208091040260200160405190810160405280929190818152602001828054610d4e906121a3565b8015610d9b5780601f10610d7057610100808354040283529160200191610d9b565b820191906000526020600020905b815481529060010190602001808311610d7e57829003601f168201915b505050505081565b60006001600160a01b038216610e0e5760405162461bcd60e51b815260206004820152602a60248201527f4552433732313a2062616c616e636520717565727920666f7220746865207a65604482015269726f206164647265737360b01b606482015260840161065b565b506001600160a01b031660009081526003602052604090205490565b600a546001600160a01b03163314610e545760405162461bcd60e51b815260040161065b9061208f565b6109c960006114d0565b600a546001600160a01b03163314610e885760405162461bcd60e51b815260040161065b9061208f565b600f55565b606060018054610686906121a3565b6001600160a01b038216331415610ef55760405162461bcd60e51b815260206004820152601960248201527f4552433732313a20617070726f766520746f2063616c6c657200000000000000604482015260640161065b565b3360008181526005602090815260408083206001600160a01b03871680855290835292819020805460ff191686151590811790915590519081529192917f17307eab39ab6107e8899845ad3d59bd9653f200f220920489ca2b5937696c31910160405180910390a35050565b610f6b3383611214565b610f875760405162461bcd60e51b815260040161065b906120c4565b610aae84848484611522565b600c8054610d22906121a3565b6000818152600260205260409020546060906001600160a01b031661101f5760405162461bcd60e51b815260206004820152602f60248201527f4552433732314d657461646174613a2055524920717565727920666f72206e6f60448201526e3732bc34b9ba32b73a103a37b5b2b760891b606482015260840161065b565b6000611029611555565b905060008151116110495760405180602001604052806000815250611077565b8061105384611564565b600c60405160200161106793929190611ee7565b6040516020818303038152906040525b9392505050565b600a546001600160a01b031633146110a85760405162461bcd60e51b815260040161065b9061208f565b8051610c9a90600c906020840190611b7e565b600a546001600160a01b031633146110e55760405162461bcd60e51b815260040161065b9061208f565b6001600160a01b03811661114a5760405162461bcd60e51b815260206004820152602660248201527f4f776e61626c653a206e6577206f776e657220697320746865207a65726f206160448201526564647265737360d01b606482015260840161065b565b611153816114d0565b50565b60006001600160e01b031982166380ac58cd60e01b148061118757506001600160e01b03198216635b5e139f60e01b145b8061062b57506301ffc9a760e01b6001600160e01b031983161461062b565b600081815260046020526040902080546001600160a01b0319166001600160a01b03841690811790915581906111db82610c9e565b6001600160a01b03167f8c5be1e5ebec7d5bd14f71427d1e84f3dd0314c0f7b2291e5b200ac8c7c3b92560405160405180910390a45050565b6000818152600260205260408120546001600160a01b031661128d5760405162461bcd60e51b815260206004820152602c60248201527f4552433732313a206f70657261746f7220717565727920666f72206e6f6e657860448201526b34b9ba32b73a103a37b5b2b760a11b606482015260840161065b565b600061129883610c9e565b9050806001600160a01b0316846001600160a01b031614806112d35750836001600160a01b03166112c884610709565b6001600160a01b0316145b8061130357506001600160a01b0380821660009081526005602090815260408083209388168352929052205460ff165b949350505050565b826001600160a01b031661131e82610c9e565b6001600160a01b0316146113865760405162461bcd60e51b815260206004820152602960248201527f4552433732313a207472616e73666572206f6620746f6b656e2074686174206960448201526839903737ba1037bbb760b91b606482015260840161065b565b6001600160a01b0382166113e85760405162461bcd60e51b8152602060048201526024808201527f4552433732313a207472616e7366657220746f20746865207a65726f206164646044820152637265737360e01b606482015260840161065b565b6113f383838361167e565b6113fe6000826111a6565b6001600160a01b0383166000908152600360205260408120805460019290611427908490612160565b90915550506001600160a01b0382166000908152600360205260408120805460019290611455908490612115565b909155505060008181526002602052604080822080546001600160a01b0319166001600160a01b0386811691821790925591518493918716917fddf252ad1be2c89b69c2b068fc378daa952ba7f163c4a11628f55a4df523b3ef91a4505050565b610c9a828260405180602001604052806000815250611736565b600a80546001600160a01b038381166001600160a01b0319831681179093556040519116919082907f8be0079c531659141344cd1fd0a4f28419497f9722a3daafe3b4186f6b6457e090600090a35050565b61152d84848461130b565b61153984848484611769565b610aae5760405162461bcd60e51b815260040161065b9061203d565b6060600b8054610686906121a3565b6060816115885750506040805180820190915260018152600360fc1b602082015290565b8160005b81156115b2578061159c816121de565b91506115ab9050600a8361212d565b915061158c565b60008167ffffffffffffffff8111156115db57634e487b7160e01b600052604160045260246000fd5b6040519080825280601f01601f191660200182016040528015611605576020820181803683370190505b5090505b84156113035761161a600183612160565b9150611627600a866121f9565b611632906030612115565b60f81b81838151811061165557634e487b7160e01b600052603260045260246000fd5b60200101906001600160f81b031916908160001a905350611677600a8661212d565b9450611609565b6001600160a01b0383166116d9576116d481600880546000838152600960205260408120829055600182018355919091527ff3f7a9fe364faab93b216da50a3214154f22a0a2b415b23a84c8169e8b636ee30155565b6116fc565b816001600160a01b0316836001600160a01b0316146116fc576116fc8382611876565b6001600160a01b038216611713576108af81611913565b826001600160a01b0316826001600160a01b0316146108af576108af82826119ec565b6117408383611a30565b61174d6000848484611769565b6108af5760405162461bcd60e51b815260040161065b9061203d565b60006001600160a01b0384163b1561186b57604051630a85bd0160e11b81526001600160a01b0385169063150b7a02906117ad903390899088908890600401611fa9565b602060405180830381600087803b1580156117c757600080fd5b505af19250505080156117f7575060408051601f3d908101601f191682019092526117f491810190611e41565b60015b611851573d808015611825576040519150601f19603f3d011682016040523d82523d6000602084013e61182a565b606091505b5080516118495760405162461bcd60e51b815260040161065b9061203d565b805181602001fd5b6001600160e01b031916630a85bd0160e11b149050611303565b506001949350505050565b6000600161188384610da3565b61188d9190612160565b6000838152600760205260409020549091508082146118e0576001600160a01b03841660009081526006602090815260408083208584528252808320548484528184208190558352600790915290208190555b5060009182526007602090815260408084208490556001600160a01b039094168352600681528383209183525290812055565b60085460009061192590600190612160565b6000838152600960205260408120546008805493945090928490811061195b57634e487b7160e01b600052603260045260246000fd5b90600052602060002001549050806008838154811061198a57634e487b7160e01b600052603260045260246000fd5b60009182526020808320909101929092558281526009909152604080822084905585825281205560088054806119d057634e487b7160e01b600052603160045260246000fd5b6001900381819060005260206000200160009055905550505050565b60006119f783610da3565b6001600160a01b039093166000908152600660209081526040808320868452825280832085905593825260079052919091209190915550565b6001600160a01b038216611a865760405162461bcd60e51b815260206004820181905260248201527f4552433732313a206d696e7420746f20746865207a65726f2061646472657373604482015260640161065b565b6000818152600260205260409020546001600160a01b031615611aeb5760405162461bcd60e51b815260206004820152601c60248201527f4552433732313a20746f6b656e20616c7265616479206d696e74656400000000604482015260640161065b565b611af76000838361167e565b6001600160a01b0382166000908152600360205260408120805460019290611b20908490612115565b909155505060008181526002602052604080822080546001600160a01b0319166001600160a01b03861690811790915590518392907fddf252ad1be2c89b69c2b068fc378daa952ba7f163c4a11628f55a4df523b3ef908290a45050565b828054611b8a906121a3565b90600052602060002090601f016020900481019282611bac5760008555611bf2565b82601f10611bc557805160ff1916838001178555611bf2565b82800160010185558215611bf2579182015b82811115611bf2578251825591602001919060010190611bd7565b50611bfe929150611c02565b5090565b5b80821115611bfe5760008155600101611c03565b600067ffffffffffffffff80841115611c3257611c32612239565b604051601f8501601f19908116603f01168101908282118183101715611c5a57611c5a612239565b81604052809350858152868686011115611c7357600080fd5b858560208301376000602087830101525050509392505050565b80356001600160a01b0381168114611ca457600080fd5b919050565b80358015158114611ca457600080fd5b600060208284031215611cca578081fd5b61107782611c8d565b60008060408385031215611ce5578081fd5b611cee83611c8d565b9150611cfc60208401611c8d565b90509250929050565b600080600060608486031215611d19578081fd5b611d2284611c8d565b9250611d3060208501611c8d565b9150604084013590509250925092565b60008060008060808587031215611d55578081fd5b611d5e85611c8d565b9350611d6c60208601611c8d565b925060408501359150606085013567ffffffffffffffff811115611d8e578182fd5b8501601f81018713611d9e578182fd5b611dad87823560208401611c17565b91505092959194509250565b60008060408385031215611dcb578182fd5b611dd483611c8d565b9150611cfc60208401611ca9565b60008060408385031215611df4578182fd5b611dfd83611c8d565b946020939093013593505050565b600060208284031215611e1c578081fd5b61107782611ca9565b600060208284031215611e36578081fd5b81356110778161224f565b600060208284031215611e52578081fd5b81516110778161224f565b600060208284031215611e6e578081fd5b813567ffffffffffffffff811115611e84578182fd5b8201601f81018413611e94578182fd5b61130384823560208401611c17565b600060208284031215611eb4578081fd5b5035919050565b60008151808452611ed3816020860160208601612177565b601f01601f19169290920160200192915050565b600084516020611efa8285838a01612177565b855191840191611f0d8184848a01612177565b85549201918390600181811c9080831680611f2957607f831692505b858310811415611f4757634e487b7160e01b88526022600452602488fd5b808015611f5b5760018114611f6c57611f98565b60ff19851688528388019550611f98565b60008b815260209020895b85811015611f905781548a820152908401908801611f77565b505083880195505b50939b9a5050505050505050505050565b6001600160a01b0385811682528416602082015260408101839052608060608201819052600090611fdc90830184611ebb565b9695505050505050565b6020808252825182820181905260009190848201906040850190845b8181101561201e57835183529284019291840191600101612002565b50909695505050505050565b6020815260006110776020830184611ebb565b60208082526032908201527f4552433732313a207472616e7366657220746f206e6f6e20455243373231526560408201527131b2b4bb32b91034b6b83632b6b2b73a32b960711b606082015260800190565b6020808252818101527f4f776e61626c653a2063616c6c6572206973206e6f7420746865206f776e6572604082015260600190565b60208082526031908201527f4552433732313a207472616e736665722063616c6c6572206973206e6f74206f6040820152701ddb995c881b9bdc88185c1c1c9bdd9959607a1b606082015260800190565b600082198211156121285761212861220d565b500190565b60008261213c5761213c612223565b500490565b600081600019048311821515161561215b5761215b61220d565b500290565b6000828210156121725761217261220d565b500390565b60005b8381101561219257818101518382015260200161217a565b83811115610aae5750506000910152565b600181811c908216806121b757607f821691505b602082108114156121d857634e487b7160e01b600052602260045260246000fd5b50919050565b60006000198214156121f2576121f261220d565b5060010190565b60008261220857612208612223565b500690565b634e487b7160e01b600052601160045260246000fd5b634e487b7160e01b600052601260045260246000fd5b634e487b7160e01b600052604160045260246000fd5b6001600160e01b03198116811461115357600080fdfea26469706673582212204e0ebda80cf538bbbf7f8f153c685534668956e6075e4373e8c0ce08d91329cf64736f6c63430008040033",
  "immutableReferences": {},
  "source": "\n// SPDX-License-Identifier: GPL-3.0\n\n// Created by HashLips\n// The Nerdy Coder Clones\n\npragma solidity ^0.8.0;\n\nimport \"@openzeppelin/contracts/token/ERC721/extensions/ERC721Enumerable.sol\";\nimport \"@openzeppelin/contracts/access/Ownable.sol\";\n\ncontract MetaKeyBlades is ERC721Enumerable, Ownable {\n  using Strings for uint256;\n\n  string public baseURI;\n  string public baseExtension = \".json\";\n  uint256 public cost = 0.06 ether;\n  uint256 public maxSupply = 1500;\n  uint256 public maxMintAmount = 10;\n  bool public paused = false;\n\n  constructor(\n    string memory _name,\n    string memory _symbol,\n    string memory _initBaseURI\n  ) ERC721(_name, _symbol) {\n    setBaseURI(_initBaseURI);\n    //mint(msg.sender, 50);\n  }\n\n  // internal\n  function _baseURI() internal view virtual override returns (string memory) {\n    return baseURI;\n  }\n\n  // public\n  function mint(address _to, uint256 _mintAmount) public payable {\n    uint256 supply = totalSupply();\n    require(!paused);\n    require(_mintAmount > 0);\n    require(supply + _mintAmount <= maxSupply);\n\n    if (msg.sender != owner()) {\n        require(_mintAmount <= maxMintAmount);\n        require(msg.value >= cost * _mintAmount, \"Not enough ether\");\n    }\n\n    for (uint256 i = 1; i <= _mintAmount; i++) {\n      _safeMint(_to, supply + i);\n    }\n  }\n\n  function walletOfOwner(address _owner)\n    public\n    view\n    returns (uint256[] memory)\n  {\n    uint256 ownerTokenCount = balanceOf(_owner);\n    uint256[] memory tokenIds = new uint256[](ownerTokenCount);\n    for (uint256 i; i < ownerTokenCount; i++) {\n      tokenIds[i] = tokenOfOwnerByIndex(_owner, i);\n    }\n    return tokenIds;\n  }\n\n  function tokenURI(uint256 tokenId)\n    public\n    view\n    virtual\n    override\n    returns (string memory)\n  {\n    require(\n      _exists(tokenId),\n      \"ERC721Metadata: URI query for nonexistent token\"\n    );\n\n    string memory currentBaseURI = _baseURI();\n    return bytes(currentBaseURI).length > 0\n        ? string(abi.encodePacked(currentBaseURI, tokenId.toString(), baseExtension))\n        : \"\";\n  }\n\n  //only owner\n  function setCost(uint256 _newCost) public onlyOwner() {\n    cost = _newCost;\n  }\n\n  function setmaxMintAmount(uint256 _newmaxMintAmount) public onlyOwner() {\n    maxMintAmount = _newmaxMintAmount;\n  }\n\n  function setBaseURI(string memory _newBaseURI) public onlyOwner {\n    baseURI = _newBaseURI;\n  }\n\n  function setBaseExtension(string memory _newBaseExtension) public onlyOwner {\n    baseExtension = _newBaseExtension;\n  }\n\n  function pause(bool _state) public onlyOwner {\n    paused = _state;\n  }\n  \n  function withdraw() public payable onlyOwner {\n    require(payable(msg.sender).send(address(this).balance));\n  }\n}",
  "sourcePath": "C:\\Users\\dbart\\Desktop\\MetaKeyBlades\\MetaKeyBladesFrontend\\contracts\\SmartContract.sol",
  "compiler": {
    "name": "solc",
    "version": "0.8.4+commit.c7e474f2.Emscripten.clang"
  },
  "schemaVersion": "3.4.3",
  "updatedAt": "2021-11-12T02:53:41.100Z",
  "networkType": "ethereum",
  "devdoc": {
    "kind": "dev",
    "methods": {
      "approve(address,uint256)": {
        "details": "See {IERC721-approve}."
      },
      "balanceOf(address)": {
        "details": "See {IERC721-balanceOf}."
      },
      "getApproved(uint256)": {
        "details": "See {IERC721-getApproved}."
      },
      "isApprovedForAll(address,address)": {
        "details": "See {IERC721-isApprovedForAll}."
      },
      "name()": {
        "details": "See {IERC721Metadata-name}."
      },
      "owner()": {
        "details": "Returns the address of the current owner."
      },
      "ownerOf(uint256)": {
        "details": "See {IERC721-ownerOf}."
      },
      "renounceOwnership()": {
        "details": "Leaves the contract without owner. It will not be possible to call `onlyOwner` functions anymore. Can only be called by the current owner. NOTE: Renouncing ownership will leave the contract without an owner, thereby removing any functionality that is only available to the owner."
      },
      "safeTransferFrom(address,address,uint256)": {
        "details": "See {IERC721-safeTransferFrom}."
      },
      "safeTransferFrom(address,address,uint256,bytes)": {
        "details": "See {IERC721-safeTransferFrom}."
      },
      "setApprovalForAll(address,bool)": {
        "details": "See {IERC721-setApprovalForAll}."
      },
      "supportsInterface(bytes4)": {
        "details": "See {IERC165-supportsInterface}."
      },
      "symbol()": {
        "details": "See {IERC721Metadata-symbol}."
      },
      "tokenByIndex(uint256)": {
        "details": "See {IERC721Enumerable-tokenByIndex}."
      },
      "tokenOfOwnerByIndex(address,uint256)": {
        "details": "See {IERC721Enumerable-tokenOfOwnerByIndex}."
      },
      "tokenURI(uint256)": {
        "details": "See {IERC721Metadata-tokenURI}."
      },
      "totalSupply()": {
        "details": "See {IERC721Enumerable-totalSupply}."
      },
      "transferFrom(address,address,uint256)": {
        "details": "See {IERC721-transferFrom}."
      },
      "transferOwnership(address)": {
        "details": "Transfers ownership of the contract to a new account (`newOwner`). Can only be called by the current owner."
      }
    },
    "version": 1
  },
  "userdoc": {
    "kind": "user",
    "methods": {},
    "version": 1
  }
}