{
  "contractName": "SmartContract",
  "abi": [
    {
      "inputs": [
        {
          "internalType": "string",
          "name": "_name",
          "type": "string"
        },
        {
          "internalType": "string",
          "name": "_symbol",
          "type": "string"
        },
        {
          "internalType": "string",
          "name": "_initBaseURI",
          "type": "string"
        }
      ],
      "stateMutability": "nonpayable",
      "type": "constructor"
    },
    {
      "anonymous": false,
      "inputs": [
        {
          "indexed": true,
          "internalType": "address",
          "name": "owner",
          "type": "address"
        },
        {
          "indexed": true,
          "internalType": "address",
          "name": "approved",
          "type": "address"
        },
        {
          "indexed": true,
          "internalType": "uint256",
          "name": "tokenId",
          "type": "uint256"
        }
      ],
      "name": "Approval",
      "type": "event"
    },
    {
      "anonymous": false,
      "inputs": [
        {
          "indexed": true,
          "internalType": "address",
          "name": "owner",
          "type": "address"
        },
        {
          "indexed": true,
          "internalType": "address",
          "name": "operator",
          "type": "address"
        },
        {
          "indexed": false,
          "internalType": "bool",
          "name": "approved",
          "type": "bool"
        }
      ],
      "name": "ApprovalForAll",
      "type": "event"
    },
    {
      "anonymous": false,
      "inputs": [
        {
          "indexed": true,
          "internalType": "address",
          "name": "previousOwner",
          "type": "address"
        },
        {
          "indexed": true,
          "internalType": "address",
          "name": "newOwner",
          "type": "address"
        }
      ],
      "name": "OwnershipTransferred",
      "type": "event"
    },
    {
      "anonymous": false,
      "inputs": [
        {
          "indexed": true,
          "internalType": "address",
          "name": "from",
          "type": "address"
        },
        {
          "indexed": true,
          "internalType": "address",
          "name": "to",
          "type": "address"
        },
        {
          "indexed": true,
          "internalType": "uint256",
          "name": "tokenId",
          "type": "uint256"
        }
      ],
      "name": "Transfer",
      "type": "event"
    },
    {
      "inputs": [
        {
          "internalType": "address",
          "name": "to",
          "type": "address"
        },
        {
          "internalType": "uint256",
          "name": "tokenId",
          "type": "uint256"
        }
      ],
      "name": "approve",
      "outputs": [],
      "stateMutability": "nonpayable",
      "type": "function"
    },
    {
      "inputs": [
        {
          "internalType": "address",
          "name": "owner",
          "type": "address"
        }
      ],
      "name": "balanceOf",
      "outputs": [
        {
          "internalType": "uint256",
          "name": "",
          "type": "uint256"
        }
      ],
      "stateMutability": "view",
      "type": "function"
    },
    {
      "inputs": [],
      "name": "baseExtension",
      "outputs": [
        {
          "internalType": "string",
          "name": "",
          "type": "string"
        }
      ],
      "stateMutability": "view",
      "type": "function"
    },
    {
      "inputs": [],
      "name": "baseURI",
      "outputs": [
        {
          "internalType": "string",
          "name": "",
          "type": "string"
        }
      ],
      "stateMutability": "view",
      "type": "function"
    },
    {
      "inputs": [],
      "name": "cost",
      "outputs": [
        {
          "internalType": "uint256",
          "name": "",
          "type": "uint256"
        }
      ],
      "stateMutability": "view",
      "type": "function"
    },
    {
      "inputs": [
        {
          "internalType": "uint256",
          "name": "tokenId",
          "type": "uint256"
        }
      ],
      "name": "getApproved",
      "outputs": [
        {
          "internalType": "address",
          "name": "",
          "type": "address"
        }
      ],
      "stateMutability": "view",
      "type": "function"
    },
    {
      "inputs": [
        {
          "internalType": "address",
          "name": "owner",
          "type": "address"
        },
        {
          "internalType": "address",
          "name": "operator",
          "type": "address"
        }
      ],
      "name": "isApprovedForAll",
      "outputs": [
        {
          "internalType": "bool",
          "name": "",
          "type": "bool"
        }
      ],
      "stateMutability": "view",
      "type": "function"
    },
    {
      "inputs": [],
      "name": "isWhitelist",
      "outputs": [
        {
          "internalType": "bool",
          "name": "",
          "type": "bool"
        }
      ],
      "stateMutability": "view",
      "type": "function"
    },
    {
      "inputs": [],
      "name": "maxMintAmount",
      "outputs": [
        {
          "internalType": "uint256",
          "name": "",
          "type": "uint256"
        }
      ],
      "stateMutability": "view",
      "type": "function"
    },
    {
      "inputs": [],
      "name": "maxPresale",
      "outputs": [
        {
          "internalType": "uint256",
          "name": "",
          "type": "uint256"
        }
      ],
      "stateMutability": "view",
      "type": "function"
    },
    {
      "inputs": [],
      "name": "maxSupply",
      "outputs": [
        {
          "internalType": "uint256",
          "name": "",
          "type": "uint256"
        }
      ],
      "stateMutability": "view",
      "type": "function"
    },
    {
      "inputs": [],
      "name": "name",
      "outputs": [
        {
          "internalType": "string",
          "name": "",
          "type": "string"
        }
      ],
      "stateMutability": "view",
      "type": "function"
    },
    {
      "inputs": [],
      "name": "owner",
      "outputs": [
        {
          "internalType": "address",
          "name": "",
          "type": "address"
        }
      ],
      "stateMutability": "view",
      "type": "function"
    },
    {
      "inputs": [
        {
          "internalType": "uint256",
          "name": "tokenId",
          "type": "uint256"
        }
      ],
      "name": "ownerOf",
      "outputs": [
        {
          "internalType": "address",
          "name": "",
          "type": "address"
        }
      ],
      "stateMutability": "view",
      "type": "function"
    },
    {
      "inputs": [],
      "name": "paused",
      "outputs": [
        {
          "internalType": "bool",
          "name": "",
          "type": "bool"
        }
      ],
      "stateMutability": "view",
      "type": "function"
    },
    {
      "inputs": [
        {
          "internalType": "address",
          "name": "",
          "type": "address"
        }
      ],
      "name": "presaleBoughtCounts",
      "outputs": [
        {
          "internalType": "uint256",
          "name": "",
          "type": "uint256"
        }
      ],
      "stateMutability": "view",
      "type": "function"
    },
    {
      "inputs": [],
      "name": "renounceOwnership",
      "outputs": [],
      "stateMutability": "nonpayable",
      "type": "function"
    },
    {
      "inputs": [
        {
          "internalType": "address",
          "name": "from",
          "type": "address"
        },
        {
          "internalType": "address",
          "name": "to",
          "type": "address"
        },
        {
          "internalType": "uint256",
          "name": "tokenId",
          "type": "uint256"
        }
      ],
      "name": "safeTransferFrom",
      "outputs": [],
      "stateMutability": "nonpayable",
      "type": "function"
    },
    {
      "inputs": [
        {
          "internalType": "address",
          "name": "from",
          "type": "address"
        },
        {
          "internalType": "address",
          "name": "to",
          "type": "address"
        },
        {
          "internalType": "uint256",
          "name": "tokenId",
          "type": "uint256"
        },
        {
          "internalType": "bytes",
          "name": "_data",
          "type": "bytes"
        }
      ],
      "name": "safeTransferFrom",
      "outputs": [],
      "stateMutability": "nonpayable",
      "type": "function"
    },
    {
      "inputs": [
        {
          "internalType": "address",
          "name": "operator",
          "type": "address"
        },
        {
          "internalType": "bool",
          "name": "approved",
          "type": "bool"
        }
      ],
      "name": "setApprovalForAll",
      "outputs": [],
      "stateMutability": "nonpayable",
      "type": "function"
    },
    {
      "inputs": [
        {
          "internalType": "bytes4",
          "name": "interfaceId",
          "type": "bytes4"
        }
      ],
      "name": "supportsInterface",
      "outputs": [
        {
          "internalType": "bool",
          "name": "",
          "type": "bool"
        }
      ],
      "stateMutability": "view",
      "type": "function"
    },
    {
      "inputs": [],
      "name": "symbol",
      "outputs": [
        {
          "internalType": "string",
          "name": "",
          "type": "string"
        }
      ],
      "stateMutability": "view",
      "type": "function"
    },
    {
      "inputs": [
        {
          "internalType": "uint256",
          "name": "index",
          "type": "uint256"
        }
      ],
      "name": "tokenByIndex",
      "outputs": [
        {
          "internalType": "uint256",
          "name": "",
          "type": "uint256"
        }
      ],
      "stateMutability": "view",
      "type": "function"
    },
    {
      "inputs": [
        {
          "internalType": "address",
          "name": "owner",
          "type": "address"
        },
        {
          "internalType": "uint256",
          "name": "index",
          "type": "uint256"
        }
      ],
      "name": "tokenOfOwnerByIndex",
      "outputs": [
        {
          "internalType": "uint256",
          "name": "",
          "type": "uint256"
        }
      ],
      "stateMutability": "view",
      "type": "function"
    },
    {
      "inputs": [],
      "name": "totalSupply",
      "outputs": [
        {
          "internalType": "uint256",
          "name": "",
          "type": "uint256"
        }
      ],
      "stateMutability": "view",
      "type": "function"
    },
    {
      "inputs": [
        {
          "internalType": "address",
          "name": "from",
          "type": "address"
        },
        {
          "internalType": "address",
          "name": "to",
          "type": "address"
        },
        {
          "internalType": "uint256",
          "name": "tokenId",
          "type": "uint256"
        }
      ],
      "name": "transferFrom",
      "outputs": [],
      "stateMutability": "nonpayable",
      "type": "function"
    },
    {
      "inputs": [
        {
          "internalType": "address",
          "name": "newOwner",
          "type": "address"
        }
      ],
      "name": "transferOwnership",
      "outputs": [],
      "stateMutability": "nonpayable",
      "type": "function"
    },
    {
      "inputs": [],
      "name": "whiteListStartTime",
      "outputs": [
        {
          "internalType": "uint256",
          "name": "",
          "type": "uint256"
        }
      ],
      "stateMutability": "view",
      "type": "function"
    },
    {
      "inputs": [
        {
          "internalType": "address",
          "name": "",
          "type": "address"
        }
      ],
      "name": "whitelisted",
      "outputs": [
        {
          "internalType": "bool",
          "name": "",
          "type": "bool"
        }
      ],
      "stateMutability": "view",
      "type": "function"
    },
    {
      "inputs": [
        {
          "internalType": "address",
          "name": "_to",
          "type": "address"
        },
        {
          "internalType": "uint256",
          "name": "_mintAmount",
          "type": "uint256"
        }
      ],
      "name": "mint",
      "outputs": [],
      "stateMutability": "payable",
      "type": "function"
    },
    {
      "inputs": [
        {
          "internalType": "address",
          "name": "_owner",
          "type": "address"
        }
      ],
      "name": "walletOfOwner",
      "outputs": [
        {
          "internalType": "uint256[]",
          "name": "",
          "type": "uint256[]"
        }
      ],
      "stateMutability": "view",
      "type": "function"
    },
    {
      "inputs": [
        {
          "internalType": "uint256",
          "name": "tokenId",
          "type": "uint256"
        }
      ],
      "name": "tokenURI",
      "outputs": [
        {
          "internalType": "string",
          "name": "",
          "type": "string"
        }
      ],
      "stateMutability": "view",
      "type": "function"
    },
    {
      "inputs": [
        {
          "internalType": "uint256",
          "name": "_newCost",
          "type": "uint256"
        }
      ],
      "name": "setCost",
      "outputs": [],
      "stateMutability": "nonpayable",
      "type": "function"
    },
    {
      "inputs": [
        {
          "internalType": "uint256",
          "name": "_newmaxMintAmount",
          "type": "uint256"
        }
      ],
      "name": "setmaxMintAmount",
      "outputs": [],
      "stateMutability": "nonpayable",
      "type": "function"
    },
    {
      "inputs": [
        {
          "internalType": "string",
          "name": "_newBaseURI",
          "type": "string"
        }
      ],
      "name": "setBaseURI",
      "outputs": [],
      "stateMutability": "nonpayable",
      "type": "function"
    },
    {
      "inputs": [
        {
          "internalType": "string",
          "name": "_newBaseExtension",
          "type": "string"
        }
      ],
      "name": "setBaseExtension",
      "outputs": [],
      "stateMutability": "nonpayable",
      "type": "function"
    },
    {
      "inputs": [
        {
          "internalType": "bool",
          "name": "_state",
          "type": "bool"
        }
      ],
      "name": "pause",
      "outputs": [],
      "stateMutability": "nonpayable",
      "type": "function"
    },
    {
      "inputs": [
        {
          "internalType": "bool",
          "name": "_state",
          "type": "bool"
        },
        {
          "internalType": "uint256",
          "name": "_startTime",
          "type": "uint256"
        }
      ],
      "name": "setWhitelist",
      "outputs": [],
      "stateMutability": "nonpayable",
      "type": "function"
    },
    {
      "inputs": [
        {
          "internalType": "address",
          "name": "_user",
          "type": "address"
        }
      ],
      "name": "whitelistUser",
      "outputs": [],
      "stateMutability": "nonpayable",
      "type": "function"
    },
    {
      "inputs": [
        {
          "internalType": "address",
          "name": "_user",
          "type": "address"
        }
      ],
      "name": "removeWhitelistUser",
      "outputs": [],
      "stateMutability": "nonpayable",
      "type": "function"
    },
    {
      "inputs": [],
      "name": "withdraw",
      "outputs": [],
      "stateMutability": "payable",
      "type": "function"
    }
  ],
  "bytecode": "0x60c06040526005608081905264173539b7b760d91b60a09081526200002891600c9190620001b9565b5066d529ae9e860000600d556109c4600e55600a600f5560026010556011805461ffff191661010017905563773594006014553480156200006857600080fd5b5060405162002aff38038062002aff8339810160408190526200008b9162000312565b825183908390620000a4906000906020850190620001b9565b508051620000ba906001906020840190620001b9565b505050620000d7620000d1620000eb60201b60201c565b620000ef565b620000e28162000141565b505050620003f2565b3390565b600a80546001600160a01b038381166001600160a01b0319831681179093556040519116919082907f8be0079c531659141344cd1fd0a4f28419497f9722a3daafe3b4186f6b6457e090600090a35050565b600a546001600160a01b03163314620001a05760405162461bcd60e51b815260206004820181905260248201527f4f776e61626c653a2063616c6c6572206973206e6f7420746865206f776e6572604482015260640160405180910390fd5b8051620001b590600b906020840190620001b9565b5050565b828054620001c7906200039f565b90600052602060002090601f016020900481019282620001eb576000855562000236565b82601f106200020657805160ff191683800117855562000236565b8280016001018555821562000236579182015b828111156200023657825182559160200191906001019062000219565b506200024492915062000248565b5090565b5b8082111562000244576000815560010162000249565b600082601f83011262000270578081fd5b81516001600160401b03808211156200028d576200028d620003dc565b604051601f8301601f19908116603f01168101908282118183101715620002b857620002b8620003dc565b81604052838152602092508683858801011115620002d4578485fd5b8491505b83821015620002f75785820183015181830184015290820190620002d8565b838211156200030857848385830101525b9695505050505050565b60008060006060848603121562000327578283fd5b83516001600160401b03808211156200033e578485fd5b6200034c878388016200025f565b9450602086015191508082111562000362578384fd5b62000370878388016200025f565b9350604086015191508082111562000386578283fd5b5062000395868287016200025f565b9150509250925092565b600181811c90821680620003b457607f821691505b60208210811415620003d657634e487b7160e01b600052602260045260246000fd5b50919050565b634e487b7160e01b600052604160045260246000fd5b6126fd80620004026000396000f3fe6080604052600436106102465760003560e01c80634f6ccce71161013957806395d89b41116100b6578063c87b56dd1161007a578063c87b56dd14610677578063d5abeb0114610697578063d936547e146106ad578063da3ef23f146106dd578063e985e9c5146106fd578063f2fde38b1461074657600080fd5b806395d89b41146105ed5780639d5fe0b814610602578063a22cb46514610622578063b88d4fde14610642578063c66828621461066257600080fd5b806370a08231116100fd57806370a082311461054d578063715018a61461056d578063725c8ee7146105825780637f00c7a6146105af5780638da5cb5b146105cf57600080fd5b80634f6ccce7146104be57806355f804b3146104de5780635c975abb146104fe5780636352211e146105185780636c0360eb1461053857600080fd5b80632f745c59116101c75780634146ed0a1161018b5780634146ed0a1461041257806342842e0e14610431578063438b63001461045157806344a0d68a1461047e5780634a4c560d1461049e57600080fd5b80632f745c59146103a157806330cc7ae0146103c157806338110563146103e15780633ccfd60b146103f757806340c10f19146103ff57600080fd5b806313faede61161020e57806313faede61461031c57806318160ddd146103405780632142ab2914610355578063239c70ae1461036b57806323b872dd1461038157600080fd5b806301ffc9a71461024b57806302329a291461028057806306fdde03146102a2578063081812fc146102c4578063095ea7b3146102fc575b600080fd5b34801561025757600080fd5b5061026b610266366004612287565b610766565b60405190151581526020015b60405180910390f35b34801561028c57600080fd5b506102a061029b366004612252565b610791565b005b3480156102ae57600080fd5b506102b76107d7565b604051610277919061248c565b3480156102d057600080fd5b506102e46102df366004612305565b610869565b6040516001600160a01b039091168152602001610277565b34801561030857600080fd5b506102a0610317366004612229565b6108fe565b34801561032857600080fd5b50610332600d5481565b604051908152602001610277565b34801561034c57600080fd5b50600854610332565b34801561036157600080fd5b5061033260105481565b34801561037757600080fd5b50610332600f5481565b34801561038d57600080fd5b506102a061039c36600461214c565b610a14565b3480156103ad57600080fd5b506103326103bc366004612229565b610a45565b3480156103cd57600080fd5b506102a06103dc366004612100565b610adb565b3480156103ed57600080fd5b5061033260145481565b6102a0610b26565b6102a061040d366004612229565b610b76565b34801561041e57600080fd5b5060115461026b90610100900460ff1681565b34801561043d57600080fd5b506102a061044c36600461214c565b610e65565b34801561045d57600080fd5b5061047161046c366004612100565b610e80565b6040516102779190612448565b34801561048a57600080fd5b506102a0610499366004612305565b610f3e565b3480156104aa57600080fd5b506102a06104b9366004612100565b610f6d565b3480156104ca57600080fd5b506103326104d9366004612305565b610fbb565b3480156104ea57600080fd5b506102a06104f93660046122bf565b61105c565b34801561050a57600080fd5b5060115461026b9060ff1681565b34801561052457600080fd5b506102e4610533366004612305565b61109d565b34801561054457600080fd5b506102b7611114565b34801561055957600080fd5b50610332610568366004612100565b6111a2565b34801561057957600080fd5b506102a0611229565b34801561058e57600080fd5b5061033261059d366004612100565b60136020526000908152604090205481565b3480156105bb57600080fd5b506102a06105ca366004612305565b61125d565b3480156105db57600080fd5b50600a546001600160a01b03166102e4565b3480156105f957600080fd5b506102b761128c565b34801561060e57600080fd5b506102a061061d36600461226c565b61129b565b34801561062e57600080fd5b506102a061063d366004612200565b6112e3565b34801561064e57600080fd5b506102a061065d366004612187565b6113a8565b34801561066e57600080fd5b506102b76113da565b34801561068357600080fd5b506102b7610692366004612305565b6113e7565b3480156106a357600080fd5b50610332600e5481565b3480156106b957600080fd5b5061026b6106c8366004612100565b60126020526000908152604090205460ff1681565b3480156106e957600080fd5b506102a06106f83660046122bf565b6114c5565b34801561070957600080fd5b5061026b61071836600461211a565b6001600160a01b03918216600090815260056020908152604080832093909416825291909152205460ff1690565b34801561075257600080fd5b506102a0610761366004612100565b611502565b60006001600160e01b0319821663780e9d6360e01b148061078b575061078b8261159d565b92915050565b600a546001600160a01b031633146107c45760405162461bcd60e51b81526004016107bb906124f1565b60405180910390fd5b6011805460ff1916911515919091179055565b6060600080546107e690612605565b80601f016020809104026020016040519081016040528092919081815260200182805461081290612605565b801561085f5780601f106108345761010080835404028352916020019161085f565b820191906000526020600020905b81548152906001019060200180831161084257829003601f168201915b5050505050905090565b6000818152600260205260408120546001600160a01b03166108e25760405162461bcd60e51b815260206004820152602c60248201527f4552433732313a20617070726f76656420717565727920666f72206e6f6e657860448201526b34b9ba32b73a103a37b5b2b760a11b60648201526084016107bb565b506000908152600460205260409020546001600160a01b031690565b60006109098261109d565b9050806001600160a01b0316836001600160a01b031614156109775760405162461bcd60e51b815260206004820152602160248201527f4552433732313a20617070726f76616c20746f2063757272656e74206f776e656044820152603960f91b60648201526084016107bb565b336001600160a01b038216148061099357506109938133610718565b610a055760405162461bcd60e51b815260206004820152603860248201527f4552433732313a20617070726f76652063616c6c6572206973206e6f74206f7760448201527f6e6572206e6f7220617070726f76656420666f7220616c6c000000000000000060648201526084016107bb565b610a0f83836115ed565b505050565b610a1e338261165b565b610a3a5760405162461bcd60e51b81526004016107bb90612526565b610a0f838383611752565b6000610a50836111a2565b8210610ab25760405162461bcd60e51b815260206004820152602b60248201527f455243373231456e756d657261626c653a206f776e657220696e646578206f7560448201526a74206f6620626f756e647360a81b60648201526084016107bb565b506001600160a01b03919091166000908152600660209081526040808320938352929052205490565b600a546001600160a01b03163314610b055760405162461bcd60e51b81526004016107bb906124f1565b6001600160a01b03166000908152601260205260409020805460ff19169055565b600a546001600160a01b03163314610b505760405162461bcd60e51b81526004016107bb906124f1565b60405133904780156108fc02916000818181858888f19350505050610b7457600080fd5b565b6000610b8160085490565b60115490915060ff1615610b9457600080fd5b60008211610ba157600080fd5b600e54610bae8383612577565b1115610bb957600080fd5b600a546001600160a01b03163314610e3057601454421015610c125760405162461bcd60e51b815260206004820152601260248201527153616c657320617265206e6f74206c69766560701b60448201526064016107bb565b60115460ff610100909104161515600114610c8657600f54821115610c3657600080fd5b81600d54610c4491906125a3565b341015610c865760405162461bcd60e51b815260206004820152601060248201526f2737ba1032b737bab3b41032ba3432b960811b60448201526064016107bb565b60115460ff6101009091041615156001148015610cb857503360009081526012602052604090205460ff161515600114155b15610d1a57601154610100900460ff1615610d155760405162461bcd60e51b815260206004820152601860248201527f57686974656c69737420616464726573736573206f6e6c79000000000000000060448201526064016107bb565b610e30565b60115460ff6101009091041615156001148015610d4b57503360009081526012602052604090205460ff1615156001145b15610e305760105433600090815260136020526040902054610d6e908490612577565b1115610dbc5760405162461bcd60e51b815260206004820152601b60248201527f50726573616c65206d617820636f756e7420657863656564656421000000000060448201526064016107bb565b3360009081526013602052604081208054849290610ddb908490612577565b9091555050600d54610dee9083906125a3565b341015610e305760405162461bcd60e51b815260206004820152601060248201526f2737ba1032b737bab3b41032ba3432b960811b60448201526064016107bb565b60015b828111610e5f57610e4d84610e488385612577565b6118fd565b80610e5781612640565b915050610e33565b50505050565b610a0f838383604051806020016040528060008152506113a8565b60606000610e8d836111a2565b905060008167ffffffffffffffff811115610eb857634e487b7160e01b600052604160045260246000fd5b604051908082528060200260200182016040528015610ee1578160200160208202803683370190505b50905060005b82811015610f3657610ef98582610a45565b828281518110610f1957634e487b7160e01b600052603260045260246000fd5b602090810291909101015280610f2e81612640565b915050610ee7565b509392505050565b600a546001600160a01b03163314610f685760405162461bcd60e51b81526004016107bb906124f1565b600d55565b600a546001600160a01b03163314610f975760405162461bcd60e51b81526004016107bb906124f1565b6001600160a01b03166000908152601260205260409020805460ff19166001179055565b6000610fc660085490565b82106110295760405162461bcd60e51b815260206004820152602c60248201527f455243373231456e756d657261626c653a20676c6f62616c20696e646578206f60448201526b7574206f6620626f756e647360a01b60648201526084016107bb565b6008828154811061104a57634e487b7160e01b600052603260045260246000fd5b90600052602060002001549050919050565b600a546001600160a01b031633146110865760405162461bcd60e51b81526004016107bb906124f1565b805161109990600b906020840190611fc5565b5050565b6000818152600260205260408120546001600160a01b03168061078b5760405162461bcd60e51b815260206004820152602960248201527f4552433732313a206f776e657220717565727920666f72206e6f6e657869737460448201526832b73a103a37b5b2b760b91b60648201526084016107bb565b600b805461112190612605565b80601f016020809104026020016040519081016040528092919081815260200182805461114d90612605565b801561119a5780601f1061116f5761010080835404028352916020019161119a565b820191906000526020600020905b81548152906001019060200180831161117d57829003601f168201915b505050505081565b60006001600160a01b03821661120d5760405162461bcd60e51b815260206004820152602a60248201527f4552433732313a2062616c616e636520717565727920666f7220746865207a65604482015269726f206164647265737360b01b60648201526084016107bb565b506001600160a01b031660009081526003602052604090205490565b600a546001600160a01b031633146112535760405162461bcd60e51b81526004016107bb906124f1565b610b746000611917565b600a546001600160a01b031633146112875760405162461bcd60e51b81526004016107bb906124f1565b600f55565b6060600180546107e690612605565b600a546001600160a01b031633146112c55760405162461bcd60e51b81526004016107bb906124f1565b601180549215156101000261ff001990931692909217909155601455565b6001600160a01b03821633141561133c5760405162461bcd60e51b815260206004820152601960248201527f4552433732313a20617070726f766520746f2063616c6c65720000000000000060448201526064016107bb565b3360008181526005602090815260408083206001600160a01b03871680855290835292819020805460ff191686151590811790915590519081529192917f17307eab39ab6107e8899845ad3d59bd9653f200f220920489ca2b5937696c31910160405180910390a35050565b6113b2338361165b565b6113ce5760405162461bcd60e51b81526004016107bb90612526565b610e5f84848484611969565b600c805461112190612605565b6000818152600260205260409020546060906001600160a01b03166114665760405162461bcd60e51b815260206004820152602f60248201527f4552433732314d657461646174613a2055524920717565727920666f72206e6f60448201526e3732bc34b9ba32b73a103a37b5b2b760891b60648201526084016107bb565b600061147061199c565b9050600081511161149057604051806020016040528060008152506114be565b8061149a846119ab565b600c6040516020016114ae93929190612349565b6040516020818303038152906040525b9392505050565b600a546001600160a01b031633146114ef5760405162461bcd60e51b81526004016107bb906124f1565b805161109990600c906020840190611fc5565b600a546001600160a01b0316331461152c5760405162461bcd60e51b81526004016107bb906124f1565b6001600160a01b0381166115915760405162461bcd60e51b815260206004820152602660248201527f4f776e61626c653a206e6577206f776e657220697320746865207a65726f206160448201526564647265737360d01b60648201526084016107bb565b61159a81611917565b50565b60006001600160e01b031982166380ac58cd60e01b14806115ce57506001600160e01b03198216635b5e139f60e01b145b8061078b57506301ffc9a760e01b6001600160e01b031983161461078b565b600081815260046020526040902080546001600160a01b0319166001600160a01b03841690811790915581906116228261109d565b6001600160a01b03167f8c5be1e5ebec7d5bd14f71427d1e84f3dd0314c0f7b2291e5b200ac8c7c3b92560405160405180910390a45050565b6000818152600260205260408120546001600160a01b03166116d45760405162461bcd60e51b815260206004820152602c60248201527f4552433732313a206f70657261746f7220717565727920666f72206e6f6e657860448201526b34b9ba32b73a103a37b5b2b760a11b60648201526084016107bb565b60006116df8361109d565b9050806001600160a01b0316846001600160a01b0316148061171a5750836001600160a01b031661170f84610869565b6001600160a01b0316145b8061174a57506001600160a01b0380821660009081526005602090815260408083209388168352929052205460ff165b949350505050565b826001600160a01b03166117658261109d565b6001600160a01b0316146117cd5760405162461bcd60e51b815260206004820152602960248201527f4552433732313a207472616e73666572206f6620746f6b656e2074686174206960448201526839903737ba1037bbb760b91b60648201526084016107bb565b6001600160a01b03821661182f5760405162461bcd60e51b8152602060048201526024808201527f4552433732313a207472616e7366657220746f20746865207a65726f206164646044820152637265737360e01b60648201526084016107bb565b61183a838383611ac5565b6118456000826115ed565b6001600160a01b038316600090815260036020526040812080546001929061186e9084906125c2565b90915550506001600160a01b038216600090815260036020526040812080546001929061189c908490612577565b909155505060008181526002602052604080822080546001600160a01b0319166001600160a01b0386811691821790925591518493918716917fddf252ad1be2c89b69c2b068fc378daa952ba7f163c4a11628f55a4df523b3ef91a4505050565b611099828260405180602001604052806000815250611b7d565b600a80546001600160a01b038381166001600160a01b0319831681179093556040519116919082907f8be0079c531659141344cd1fd0a4f28419497f9722a3daafe3b4186f6b6457e090600090a35050565b611974848484611752565b61198084848484611bb0565b610e5f5760405162461bcd60e51b81526004016107bb9061249f565b6060600b80546107e690612605565b6060816119cf5750506040805180820190915260018152600360fc1b602082015290565b8160005b81156119f957806119e381612640565b91506119f29050600a8361258f565b91506119d3565b60008167ffffffffffffffff811115611a2257634e487b7160e01b600052604160045260246000fd5b6040519080825280601f01601f191660200182016040528015611a4c576020820181803683370190505b5090505b841561174a57611a616001836125c2565b9150611a6e600a8661265b565b611a79906030612577565b60f81b818381518110611a9c57634e487b7160e01b600052603260045260246000fd5b60200101906001600160f81b031916908160001a905350611abe600a8661258f565b9450611a50565b6001600160a01b038316611b2057611b1b81600880546000838152600960205260408120829055600182018355919091527ff3f7a9fe364faab93b216da50a3214154f22a0a2b415b23a84c8169e8b636ee30155565b611b43565b816001600160a01b0316836001600160a01b031614611b4357611b438382611cbd565b6001600160a01b038216611b5a57610a0f81611d5a565b826001600160a01b0316826001600160a01b031614610a0f57610a0f8282611e33565b611b878383611e77565b611b946000848484611bb0565b610a0f5760405162461bcd60e51b81526004016107bb9061249f565b60006001600160a01b0384163b15611cb257604051630a85bd0160e11b81526001600160a01b0385169063150b7a0290611bf490339089908890889060040161240b565b602060405180830381600087803b158015611c0e57600080fd5b505af1925050508015611c3e575060408051601f3d908101601f19168201909252611c3b918101906122a3565b60015b611c98573d808015611c6c576040519150601f19603f3d011682016040523d82523d6000602084013e611c71565b606091505b508051611c905760405162461bcd60e51b81526004016107bb9061249f565b805181602001fd5b6001600160e01b031916630a85bd0160e11b14905061174a565b506001949350505050565b60006001611cca846111a2565b611cd491906125c2565b600083815260076020526040902054909150808214611d27576001600160a01b03841660009081526006602090815260408083208584528252808320548484528184208190558352600790915290208190555b5060009182526007602090815260408084208490556001600160a01b039094168352600681528383209183525290812055565b600854600090611d6c906001906125c2565b60008381526009602052604081205460088054939450909284908110611da257634e487b7160e01b600052603260045260246000fd5b906000526020600020015490508060088381548110611dd157634e487b7160e01b600052603260045260246000fd5b6000918252602080832090910192909255828152600990915260408082208490558582528120556008805480611e1757634e487b7160e01b600052603160045260246000fd5b6001900381819060005260206000200160009055905550505050565b6000611e3e836111a2565b6001600160a01b039093166000908152600660209081526040808320868452825280832085905593825260079052919091209190915550565b6001600160a01b038216611ecd5760405162461bcd60e51b815260206004820181905260248201527f4552433732313a206d696e7420746f20746865207a65726f206164647265737360448201526064016107bb565b6000818152600260205260409020546001600160a01b031615611f325760405162461bcd60e51b815260206004820152601c60248201527f4552433732313a20746f6b656e20616c7265616479206d696e7465640000000060448201526064016107bb565b611f3e60008383611ac5565b6001600160a01b0382166000908152600360205260408120805460019290611f67908490612577565b909155505060008181526002602052604080822080546001600160a01b0319166001600160a01b03861690811790915590518392907fddf252ad1be2c89b69c2b068fc378daa952ba7f163c4a11628f55a4df523b3ef908290a45050565b828054611fd190612605565b90600052602060002090601f016020900481019282611ff35760008555612039565b82601f1061200c57805160ff1916838001178555612039565b82800160010185558215612039579182015b8281111561203957825182559160200191906001019061201e565b50612045929150612049565b5090565b5b80821115612045576000815560010161204a565b600067ffffffffffffffff808411156120795761207961269b565b604051601f8501601f19908116603f011681019082821181831017156120a1576120a161269b565b816040528093508581528686860111156120ba57600080fd5b858560208301376000602087830101525050509392505050565b80356001600160a01b03811681146120eb57600080fd5b919050565b803580151581146120eb57600080fd5b600060208284031215612111578081fd5b6114be826120d4565b6000806040838503121561212c578081fd5b612135836120d4565b9150612143602084016120d4565b90509250929050565b600080600060608486031215612160578081fd5b612169846120d4565b9250612177602085016120d4565b9150604084013590509250925092565b6000806000806080858703121561219c578081fd5b6121a5856120d4565b93506121b3602086016120d4565b925060408501359150606085013567ffffffffffffffff8111156121d5578182fd5b8501601f810187136121e5578182fd5b6121f48782356020840161205e565b91505092959194509250565b60008060408385031215612212578182fd5b61221b836120d4565b9150612143602084016120f0565b6000806040838503121561223b578182fd5b612244836120d4565b946020939093013593505050565b600060208284031215612263578081fd5b6114be826120f0565b6000806040838503121561227e578182fd5b612244836120f0565b600060208284031215612298578081fd5b81356114be816126b1565b6000602082840312156122b4578081fd5b81516114be816126b1565b6000602082840312156122d0578081fd5b813567ffffffffffffffff8111156122e6578182fd5b8201601f810184136122f6578182fd5b61174a8482356020840161205e565b600060208284031215612316578081fd5b5035919050565b600081518084526123358160208601602086016125d9565b601f01601f19169290920160200192915050565b60008451602061235c8285838a016125d9565b85519184019161236f8184848a016125d9565b85549201918390600181811c908083168061238b57607f831692505b8583108114156123a957634e487b7160e01b88526022600452602488fd5b8080156123bd57600181146123ce576123fa565b60ff198516885283880195506123fa565b60008b815260209020895b858110156123f25781548a8201529084019088016123d9565b505083880195505b50939b9a5050505050505050505050565b6001600160a01b038581168252841660208201526040810183905260806060820181905260009061243e9083018461231d565b9695505050505050565b6020808252825182820181905260009190848201906040850190845b8181101561248057835183529284019291840191600101612464565b50909695505050505050565b6020815260006114be602083018461231d565b60208082526032908201527f4552433732313a207472616e7366657220746f206e6f6e20455243373231526560408201527131b2b4bb32b91034b6b83632b6b2b73a32b960711b606082015260800190565b6020808252818101527f4f776e61626c653a2063616c6c6572206973206e6f7420746865206f776e6572604082015260600190565b60208082526031908201527f4552433732313a207472616e736665722063616c6c6572206973206e6f74206f6040820152701ddb995c881b9bdc88185c1c1c9bdd9959607a1b606082015260800190565b6000821982111561258a5761258a61266f565b500190565b60008261259e5761259e612685565b500490565b60008160001904831182151516156125bd576125bd61266f565b500290565b6000828210156125d4576125d461266f565b500390565b60005b838110156125f45781810151838201526020016125dc565b83811115610e5f5750506000910152565b600181811c9082168061261957607f821691505b6020821081141561263a57634e487b7160e01b600052602260045260246000fd5b50919050565b60006000198214156126545761265461266f565b5060010190565b60008261266a5761266a612685565b500690565b634e487b7160e01b600052601160045260246000fd5b634e487b7160e01b600052601260045260246000fd5b634e487b7160e01b600052604160045260246000fd5b6001600160e01b03198116811461159a57600080fdfea2646970667358221220c2cbcdb2e22e3859be2005135dc2bf139a8fbb3a50ff11a25d314fe022644c7b64736f6c63430008040033",
  "immutableReferences": {},
  "source": "\r\n// SPDX-License-Identifier: GPL-3.0\r\n\r\n// Created by HashLips\r\n// The Nerdy Coder Clones\r\n\r\npragma solidity ^0.8.0;\r\n\r\nimport \"@openzeppelin/contracts/token/ERC721/extensions/ERC721Enumerable.sol\";\r\nimport \"@openzeppelin/contracts/access/Ownable.sol\";\r\n\r\ncontract SmartContract is ERC721Enumerable, Ownable {\r\n  using Strings for uint256;\r\n\r\n  string public baseURI;\r\n  string public baseExtension = \".json\";\r\n  uint256 public cost = 0.06 ether;\r\n  uint256 public maxSupply = 2500;\r\n  uint256 public maxMintAmount = 10;\r\n  uint256 public maxPresale = 2;\r\n  bool public paused = false;\r\n  bool public isWhitelist = true;\r\n  mapping(address => bool) public whitelisted;\r\n  mapping(address => uint256) public presaleBoughtCounts;\r\n  //Default it to value far in future\r\n  uint256 public whiteListStartTime = 2000000000;\r\n\r\n  constructor(\r\n    string memory _name,\r\n    string memory _symbol,\r\n    string memory _initBaseURI\r\n  ) ERC721(_name, _symbol) {\r\n    setBaseURI(_initBaseURI);\r\n    //mint(msg.sender, 100);\r\n  }\r\n\r\n  // internal\r\n  function _baseURI() internal view virtual override returns (string memory) {\r\n    return baseURI;\r\n  }\r\n\r\n  // public\r\n  function mint(address _to, uint256 _mintAmount) public payable {\r\n    uint256 supply = totalSupply();\r\n    require(!paused);\r\n    require(_mintAmount > 0);\r\n    require(supply + _mintAmount <= maxSupply);\r\n\r\n    if (msg.sender != owner()) {\r\n        //Check to make sure block wasn't sent early\r\n        require(block.timestamp >= whiteListStartTime, \"Sales are not live\");\r\n        \r\n        if(isWhitelist != true) {\r\n          //It is not whitelist and user is not whitelisted\r\n          require(_mintAmount <= maxMintAmount);\r\n          require(msg.value >= cost * _mintAmount, \"Not enough ether\");\r\n        }\r\n        if(isWhitelist == true && whitelisted[msg.sender] != true){\r\n            //User should not be able to buy here\r\n            require(!isWhitelist, \"Whitelist addresses only\");\r\n        }\r\n        else if (isWhitelist == true && whitelisted[msg.sender] == true){\r\n            //User is whitelisted and is whitelist period\r\n            require(presaleBoughtCounts[msg.sender] + _mintAmount <= maxPresale, \"Presale max count exceeded!\");\r\n            presaleBoughtCounts[msg.sender] += _mintAmount;\r\n            require(msg.value >= cost * _mintAmount, \"Not enough ether\");\r\n        }\r\n    }\r\n\r\n    for (uint256 i = 1; i <= _mintAmount; i++) {\r\n      _safeMint(_to, supply + i);\r\n    }\r\n  }\r\n\r\n  function walletOfOwner(address _owner)\r\n    public\r\n    view\r\n    returns (uint256[] memory)\r\n  {\r\n    uint256 ownerTokenCount = balanceOf(_owner);\r\n    uint256[] memory tokenIds = new uint256[](ownerTokenCount);\r\n    for (uint256 i; i < ownerTokenCount; i++) {\r\n      tokenIds[i] = tokenOfOwnerByIndex(_owner, i);\r\n    }\r\n    return tokenIds;\r\n  }\r\n\r\n  function tokenURI(uint256 tokenId)\r\n    public\r\n    view\r\n    virtual\r\n    override\r\n    returns (string memory)\r\n  {\r\n    require(\r\n      _exists(tokenId),\r\n      \"ERC721Metadata: URI query for nonexistent token\"\r\n    );\r\n\r\n    string memory currentBaseURI = _baseURI();\r\n    return bytes(currentBaseURI).length > 0\r\n        ? string(abi.encodePacked(currentBaseURI, tokenId.toString(), baseExtension))\r\n        : \"\";\r\n  }\r\n\r\n  //only owner\r\n  function setCost(uint256 _newCost) public onlyOwner() {\r\n    cost = _newCost;\r\n  }\r\n\r\n  function setmaxMintAmount(uint256 _newmaxMintAmount) public onlyOwner() {\r\n    maxMintAmount = _newmaxMintAmount;\r\n  }\r\n\r\n  function setBaseURI(string memory _newBaseURI) public onlyOwner {\r\n    baseURI = _newBaseURI;\r\n  }\r\n\r\n  function setBaseExtension(string memory _newBaseExtension) public onlyOwner {\r\n    baseExtension = _newBaseExtension;\r\n  }\r\n\r\n  function pause(bool _state) public onlyOwner {\r\n    paused = _state;\r\n  }\r\n  \r\n  function setWhitelist(bool _state, uint256 _startTime) public onlyOwner {\r\n    isWhitelist = _state;\r\n    whiteListStartTime = _startTime;\r\n  }\r\n \r\n function whitelistUser(address _user) public onlyOwner {\r\n    whitelisted[_user] = true;\r\n  }\r\n \r\n  function removeWhitelistUser(address _user) public onlyOwner {\r\n    whitelisted[_user] = false;\r\n  }\r\n\r\n  function withdraw() public payable onlyOwner {\r\n    require(payable(msg.sender).send(address(this).balance));\r\n  }\r\n}",
  "sourcePath": "C:\\Users\\dbart\\Desktop\\MetaKeyBlades\\MetaKeyBladesFrontend\\contracts\\CopySmartContract.sol",
  "compiler": {
    "name": "solc",
    "version": "0.8.4+commit.c7e474f2.Emscripten.clang"
  },
  "schemaVersion": "3.4.3",
  "updatedAt": "2021-11-12T02:53:38.346Z",
  "devdoc": {
    "kind": "dev",
    "methods": {
      "approve(address,uint256)": {
        "details": "See {IERC721-approve}."
      },
      "balanceOf(address)": {
        "details": "See {IERC721-balanceOf}."
      },
      "getApproved(uint256)": {
        "details": "See {IERC721-getApproved}."
      },
      "isApprovedForAll(address,address)": {
        "details": "See {IERC721-isApprovedForAll}."
      },
      "name()": {
        "details": "See {IERC721Metadata-name}."
      },
      "owner()": {
        "details": "Returns the address of the current owner."
      },
      "ownerOf(uint256)": {
        "details": "See {IERC721-ownerOf}."
      },
      "renounceOwnership()": {
        "details": "Leaves the contract without owner. It will not be possible to call `onlyOwner` functions anymore. Can only be called by the current owner. NOTE: Renouncing ownership will leave the contract without an owner, thereby removing any functionality that is only available to the owner."
      },
      "safeTransferFrom(address,address,uint256)": {
        "details": "See {IERC721-safeTransferFrom}."
      },
      "safeTransferFrom(address,address,uint256,bytes)": {
        "details": "See {IERC721-safeTransferFrom}."
      },
      "setApprovalForAll(address,bool)": {
        "details": "See {IERC721-setApprovalForAll}."
      },
      "supportsInterface(bytes4)": {
        "details": "See {IERC165-supportsInterface}."
      },
      "symbol()": {
        "details": "See {IERC721Metadata-symbol}."
      },
      "tokenByIndex(uint256)": {
        "details": "See {IERC721Enumerable-tokenByIndex}."
      },
      "tokenOfOwnerByIndex(address,uint256)": {
        "details": "See {IERC721Enumerable-tokenOfOwnerByIndex}."
      },
      "tokenURI(uint256)": {
        "details": "See {IERC721Metadata-tokenURI}."
      },
      "totalSupply()": {
        "details": "See {IERC721Enumerable-totalSupply}."
      },
      "transferFrom(address,address,uint256)": {
        "details": "See {IERC721-transferFrom}."
      },
      "transferOwnership(address)": {
        "details": "Transfers ownership of the contract to a new account (`newOwner`). Can only be called by the current owner."
      }
    },
    "version": 1
  },
  "userdoc": {
    "kind": "user",
    "methods": {},
    "version": 1
  }
}